:060000000A128A1110280B
:10000800FE00030EF0000A08F100831203137F08B4
:10001800F2000A128A15A82F0A128A1113280A1246
:100028008A11FE270A128A11FA00831320308400ED
:1000380036300A128A1566260A128A11F801F90161
:1000480083010A128A11F42C83120313BC002D08B1
:10005800803AFF0080307F02031D342811302C02C3
:10006800031C372838287328FF3083120313BA007B
:100078003A08BC00A201A301AA01AB01F801F901E9
:10008800A801A901A401A5014230B6008430B70037
:100098008030BA003A08B8000A128A15F4260A1203
:1000A8008A11AB3083120313B6008430B700C03016
:1000B800BA003A08B8000A128A15F4260A128A11F8
:1000C800533083120313B6008430B700D030BA001F
:1000D8003A08B8000A128A15F4260A128A118312FD
:1000E80003133C0A031979287A28EE282A303C069B
:1000F80003197F288028EE2823303C060319852819
:100108008628EE280130A2070318A30A0030A307A7
:100118002308803AFF0080307F02031D95280330B2
:100128002202031898289928B528831203132B084C
:10013800F4002A08F3000A30F5000030F6000A122D
:100148008A15C9260A128A11831203133C087307F9
:10015800AA000030031801307407AB00A401A50100
:10016800EE28831203132308803AFF0080307F02B1
:10017800031DC02803302202031CC328C428EE280C
:10018800831203132308803AFF0080307F02031D87
:10019800CF28053022020318D228D328EE28790860
:1001A800F4007808F3000A30F5000030F6000A126F
:1001B8008A15C9260A128A11831203133C08730789
:1001C800F8000030031801307407F9000130A4006A
:1001D8000030A5002A30831203133C06031DF528BE
:1001E800F62831292308803AFF0080307F02031D5A
:1001F800FF28033022020318022903290A2983123F
:100208000313AA01AB01A201A3014429831203131A
:100218002308803AFF0080307F02031D1529033030
:100228002202031C182919294429831203132308BD
:10023800803AFF0080307F02031D24290530220206
:100248000318272928294429F801F90102308312C3
:100258000313A2000030A300442923303C06031DE9
:100268003629372944290A128A155E260A128A1164
:1002780083120313121507150630AE000030AF00C5
:100288000A30F3000030F400831203132B08F60041
:100298002A08F5000A128A110D270A128A11730812
:1002A800303E83120313BA003A08B0000A30F30054
:1002B8000030F4002B08F6002A08F5000A128A110B
:1002C80061230A128A117308303E83120313BA009D
:1002D8003A08B100B2010A30F3000030F40079089E
:1002E800F6007808F5000A128A110D270A128A11F9
:1002F8007308303E83120313BA003A08B3000A3079
:10030800F3000030F4007908F6007808F5000A12C6
:100318008A1161230A128A117308303E831203136B
:10032800BA003A08B400B5010130A6070318A70AB5
:100338000030A707333026062704031DA429A52962
:10034800D129A601A701280829040319AC29AE2937
:100358000130AF290030BA00BB013A08A8003B08B9
:10036800A9003330B6000030B700C630BA003A08EA
:10037800B8000A128A15F4260A128A11303083123C
:100388000313B6000030B700C930BA003A08B80005
:100398000A128A15F4260A128A11831203132808EE
:1003A80029040319D829D929032AF6291330B600B4
:1003B8008430B700C930BA003A08B8000A128A1562
:1003C800F4260A128A11032A1330B6008430B700C3
:1003D800C630BA003A08B8000A128A15F4260A127A
:1003E8008A11032A2508003A0319FB29032A24083D
:1003F800003A0319DA29013A0319E829032A0800FF
:100408000A128A11BC230A128A11C33083120313F9
:10041800B6008430B7008030BA003A08B8000A1233
:100428008A15F4260A128A110A30F3000030F40003
:100438007908F6007808F5000A128A110D270A12C1
:100448008A117308303E83120313BA003A08B300C6
:100458000A30F3000030F4007908F6007808F50057
:100468000A128A1161230A128A117308303E831214
:100478000313BA003A08B400B5013330B6000030AF
:10048800B7008830BA003A08B8000A128A15F4266C
:100498000A128A118A3083120313BA003A08F70045
:1004A800F2300A128A1596260A128A110A30F300C7
:1004B8000030F400831203132B08F6002A08F50015
:1004C8000A128A110D270A128A117308303E831204
:1004D8000313BA003A08B0000A30F3000030F40001
:1004E8002B08F6002A08F5000A128A1161230A125D
:1004F8008A117308303E83120313BA003A08B10018
:10050800B2013030B6000030B7008B30BA003A087C
:10051800B8000A128A15F4260A128A112C3083129E
:100528000313B6008430B700C030BA003A08B800E8
:100538000A128A15F4260A128A1116308312031336
:10054800B6008430B7009030BA003A08B8000A12F2
:100558008A15F4260A128A11003083120313B60092
:100568008430B700D030BA003A08B8000A128A15A9
:10057800F4260A128A1178087904031DC42AC52AA8
:10058800022B831203132A082B04031DCC2ACD2A1D
:10059800022B121107110A128A155E260A128A11F5
:1005A800643083120313B6008430B7008030BA0079
:1005B8003A08B8000A128A15F4260A128A11831218
:1005C80003138714333083120313BC00BB30BB0002
:1005D800DF30BA00BA0BEE2ABB0BEE2ABC0BEE2AB0
:1005E8008312031387100A128A155E260A128A11CB
:1005F800013083120313AE000030AF0008008312ED
:100608000313BD003B2B0A128A155D270A128A11B3
:100618005A2B0A128A1104220A128A115A2BF30140
:100628000C300A128A1527270A128A11831203131B
:100638003D080A128A1128200A128A115A2B3D08ED
:100648000A128A1128200A128A115A2B121107112C
:100658005A2B121107110A128A155E260A128A11DC
:10066800013083120313AE000030AF005A2B2F085D
:10067800003A0319402B5A2B2E08013A0319072B6D
:10068800033A0319132B013A0319232B073A0319C9
:100698005A2B013A03190D2B033A03190D2B013A72
:1006A80003192A2B0F3A03192D2B5A2BF0308312DA
:1006B8000313AC000030AD00080083120313B70128
:1006C800F61F672B682B6F2BF509F609F50A031936
:1006D800F60AB701B70AF41F722B732B782BF309AC
:1006E800F409F30A0319F40A7308740403197D2B37
:1006F8007E2BAD2BB601B60A8C2B01300310F30DFF
:10070800F40DFF3E031D822B0130F7007708B60772
:10071800F41F8F2B902B812B74087602031D962BC8
:1007280073087502031C992B9A2BA02B7308F502EA
:100738007408031CF603F60201300310F40CF30CE2
:10074800FF3E031DA12B0130B602031DAC2BAD2BC0
:10075800902B37080319B12BB22BB72BF509F609E3
:10076800F50A0319F60A7608F4007508F30008007C
:10077800831203138619C12BC22BF32B871407117D
:1007880012110A128A155E260A128A11CD308312B6
:100798000313B6008430B700C230F7007708B800FA
:1007A8000A128A15F4260A128A119E30831203133C
:1007B800B6008430B7009230F7007708B8000A1204
:1007C8008A15F4260A128A1183120313861DED2B4B
:1007D800EE2BE82B0A128A155E260A128A1183125A
:0A07E800031312158710071508000F
:10080000203436342E34533474346F3470342034FE
:100810002034203420342034203420342034203438
:100820002034203420342034203400342034353433
:100830002E345034613475347334653420342034AC
:100840002034203420342034203420342034203408
:100850002034203420340034203434342E345334C3
:1008600074346134723474342F34523465347334D4
:1008700075346D34653420342034203420342034F1
:1008800020340034533445345434203454344934FF
:100890004D34453420343C344D344D343A345334A3
:1008A00053343E3400342A343A3443344C344534DF
:1008B000413452342034203423343A3445344E34D5
:1008C000543445345234003443344F344F344B3471
:1008D00049344E3447342034543449344D3445344B
:1008E00020345534503400344D3469346334723418
:1008F0006F34773461347634653420344F34763451
:1009000065346E34003433342E34203443346F3441
:100910006E34763465346334743469346F346E34D1
:10092000003450346F3477346534723420343D34BD
:1009300020343934303430345734003450346C344B
:100940006534613473346534203463346C346F340B
:10095000733465340034543449344D3445342D34C3
:100960002034303430343A3430343034003450347D
:100970006F3477346534723469346E3467342034BC
:100980004F344E340034543449344D3445342034DB
:100990003D34203420342034003444346F346F34F8
:1009A000723420344F34703465346E340034323451
:1009B0002E3420344734723469346C346C3400344F
:1009C00031342E3420344D346934633472346F340E
:1009D000003434342E34203453347434613472345B
:1009E000743400343A3400340A128A15AB260A12E1
:1009F0008A110A128A1194260A128A110A128A1579
:100A00005E260A128A11013083120313AE000030F1
:100A1000AF0001300A128A11D9270A128A118312F3
:100A20000313C0004008C30002302E062F04031D2C
:100A30001A2D1B2D1D2DDC2DDC2D4303031D212D17
:100A4000222D592D0230AE000030AF001130AC0025
:100A50000030AD00F3010C300A128A1527270A1264
:100A60008A110A128A155E260A128A11913083129F
:100A70000313B6008430B700C030C0004008B8008F
:100A80000A128A15F4260A128A11333083120313CC
:100A9000C200BB30C100DF30C000C00B4D2DC10B08
:100AA0004D2DC20B4D2D0A128A155E260A128A118F
:100AB000DC2D02304306031D5E2D5F2D682D0330B3
:100AC000AE000030AF001230AC000030AD00532D4E
:100AD00003304306031D6D2D6E2D732D0430AE00C3
:100AE0000030AF00DC2D04304306031D782D792D36
:100AF000C72D2E032F04031D7E2D7F2D8C2DF80175
:100B0000F9011E30AA000030AB001215071506309F
:100B1000AE000030AF00DC2D06302E062F04031D82
:100B2000922D932DB92D2A081E3EAA002B080318DA
:100B3000013E003EAB002B08803AFF0080307F0270
:100B4000031DA42D3C302A02031CA72DA82D1C2D0B
:100B50000130F8070318F90A0030F907831203136C
:100B60002A08C43EAA002B080318013EFF3EAB0032
:100B7000DC2D07302E062F04031DBF2DC02D1C2D8C
:100B8000121507150530AE000030AF00DC2D053022
:100B90004306031DCC2DCD2DD22D0730AE000030E5
:100BA000AF00DC2D06304306031DD72DD82D1C2D9C
:100BB0000830AE000030AF008312031343080A125E
:100BC0008A1103230A128A11092D0A128A11102888
:100BD0008312031388110815881408146430F30075
:100BE0000030F400FF30F3070318F40AFF30F40775
:100BF000730A031DFF2D740A031DFF2D002EF22D15
:100C0000831203130618052E062E082E0130932E8C
:100C100086180B2E0C2E0E2E0230932E0619112E36
:100C2000122E142E0330932E8815081188140814E0
:100C30006430F3000030F400FF30F3070318F40AC7
:100C4000FF30F407730A031D292E740A031D292E91
:100C50002A2E1C2E8312031306182F2E302E322E0E
:100C60000430932E8618352E362E382E0530932ECE
:100C700006193B2E3C2E3E2E0630932E8815081565
:100C8000881008146430F3000030F400FF30F307DC
:100C90000318F40AFF30F407730A031D532E740A75
:100CA000031D532E542E462E831203130618592E5D
:100CB0005A2E5C2E0730932E86185F2E602E622EE1
:100CC0000830932E0619652E662E682E0930932E55
:100CD00088150815881408106430F3000030F400FB
:100CE000FF30F3070318F40AFF30F407730A031DFB
:100CF0007D2E740A031D7D2E7E2E702E831203130B
:100D00000618832E842E862E2A30932E8618892E3E
:100D10008A2E8C2E0030932E06198F2E902E922E16
:100D20002330932EFF30080083120313BC01BD0152
:100D3000831203133C08803EB9003908F700FF30E6
:100D40000A128A1596260A128A1101308312031399
:100D5000BC070318BD0A0030BD073D08803AFF00FC
:100D600080307F02031DB62E10303C02031CB92ECA
:100D7000BA2E982EB73083120313B6008430B70012
:100D8000C230B9003908B8000A128A15F4260A12CE
:100D90008A11743083120313B6008430B700913087
:100DA000B9003908B8000A128A15F4260A128A1105
:100DB00083120313BE01BF01831203133E08D03E0A
:100DC000B9003908F700FF300A128A1596260A1270
:100DD0008A11013083120313BE070318BF0A0030C3
:100DE000BF073F08803AFF0080307F02031DFA2EC4
:100DF00010303E02031CFD2EFE2EDC2E33308312FB
:100E00000313BB00BB30BA00DF30B900B90B062FAB
:100E1000BA0B062FBB0B062F080083120313B70172
:100E2000F41F132F142F1B2FF309F409F30A0319CE
:100E3000F40AB701B70AF61F1E2F1F2F282FF50936
:100E4000F609F50A0319F60A0130F7007708B70624
:100E5000B801B9017308740403192F2F302F672FBD
:100E6000B601B60A3E2F01300310F30DF40DFF3E1C
:100E7000031D342F0130F7007708B607F41F412F08
:100E8000422F332F01300310B80DB90DFF3E031D63
:100E9000432F74087602031D4F2F73087502031C3D
:100EA000522F532F5A2F7308F5027408031CF603B0
:100EB000F602381401300310F40CF30CFF3E031D4E
:100EC0005B2F0130B602031D662F672F422F3708B4
:100ED00003196B2F6C2F712FB809B909B80A0319C0
:100EE000B90A3908F4003808F3000800C330831247
:100EF0000313B700CC30B600B60B7C2FB70B7C2F9A
:100F00000000F30130300A128A1527270A128A11CD
:100F10001B3083120313B7009D30B600B60B8E2F23
:100F2000B70B8E2F932FF30130300A128A15272723
:100F30000A128A11A53083120313B600B60B9E2F36
:100F4000A12FF30130300A128A1527270A128A11BD
:100F5000A92FAA2F0000F30102300A128A152727B1
:100F60000A128A11A53083120313B600B60BB62FEE
:100F7000B92FF30101300A128A1527270A128A11A4
:100F8000043083120313B7003D30B600B60BC62FF2
:100F9000B70BC62FF3010C300A128A1527270A1245
:100FA0008A11A53083120313B600B60BD52FD82FA4
:100FB0000800F6000A128A11E8250A128A11F500C3
:100FC0007508F7007608031DE62FE72FE92F77084D
:100FD000FD2F770A0319ED2FEE2FF52F7A0803194D
:100FE000F22FF32FF52FFA01E72F770A031DF92FC0
:0E0FF000FA2FFC2FFA01FA0AFF300800013434
:10100000FF1B0A2883137F1883170008840A03191B
:10101000FF0A08007F087F398A000408840A031940
:04102000FF0A820041
:101CBC00F30101300A128A1527270A128A15080027
:101CCC0064008001840A0406031900340406672E9C
:101CDC00831603138801091189100A128A117627B9
:101CEC000A128A1508008312031312149214FA3084
:101CFC008316031392008C1483120313121508001D
:101D0C00831603130608073886000808F039880084
:101D1C0081138312031388150815881408140800FE
:101D2C0083120313B600F30177080A128A152727CA
:101D3C000A128A15F301F30A8312031336080A12E6
:101D4C008A1527270A128A1508000A128A156E2688
:101D5C000A128A150A128A1586260A128A150A127E
:101D6C008A1579260A128A15831603138710831293
:101D7C000313871083160313071183120313071120
:101D8C000B178B17080083120313B601B701731CD2
:101D9C00D02ED12ED92E750883120313B607031833
:101DAC00B70A7608B70701300310F50DF60DFF3EA4
:101DBC00031DDA2E01300310F40CF30CFF3E031D4F
:101DCC00E12E73087404031DEC2EED2ECD2E831220
:101DDC0003133708F4003608F3000800F3018312EC
:101DEC00031338080A128A1527270A128A15162F88
:101DFC00F301F30A3708FF00360884000A128A152B
:101E0C0000200A128A150A128A1527270A128A1527
:101E1C00013083120313B6070318B70A0030B70753
:101E2C00831203133708FF00360884000A128A1540
:101E3C0000200A128A15003A031D252F262FFE2E8C
:101E4C000800F60073182B2F2F2F8312031309157C
:101E5C00322F8312031309117608F0398800891484
:101E6C00A630F400F40B382F0000831203138910F2
:101E7C0076080F39F40003300310F40DFF3E031DF8
:101E8C00422F0310740D88008914A630F400F40B53
:101E9C004D2F00008312031389101B30F5009E3068
:101EAC00F400F40B572FF50B572F00000800E0300F
:101EBC0083120313B6008430B7008030B9003908A0
:101ECC00B8000A128A15F4260A128A15D730831222
:101EDC000313B6008430B700C030B9003908B8001D
:101EEC000A128A15F4260A128A15833083120313F8
:101EFC00B6008430B7009030B9003908B8000A1227
:101F0C008A15F4260A128A15E93083120313B600D7
:101F1C008430B700D030B9003908B8000A128A15DD
:101F2C00F4260A128A15333083120313BB00BB301C
:101F3C00BA00DF30B900B90BA12FBA0BA12FBB0B24
:101F4C00A12F08008C1CAB2FAC2FF72F0130A00752
:101F5C000318A10A0030A107E2302006043003194F
:101F6C002106031DBA2FBB2FF42FA001A1012B08B2
:101F7C00803AFF0080307F02031DC62F01302A02F9
:101F8C00031CC92FCA2FD32FFF3083120313AA07A8
:101F9C000318AB0AFF30AB07F42F831203132A0884
:101FAC002B04031DDA2FDB2FF42F7908803AFF0066
:101FBC0080307F02031DE42F01307802031CE72FD1
:101FCC00E82FF42FFF30F8070318F90AFF30F90750
:101FDC003B3083120313AA000030AB0083120313AF
:101FEC008C107208FF0071088A00700E8300FE0EC0
:041FFC007E0E09004C
:02400E00FB3F76
:00000001FF
